:020000041000EA
:1000000000B5324B212058609868022188439860DF
:10001000D860186158612E4B002199600221596106
:100020000121F02299502B49196001219960352056
:1000300000F044F80222904214D00621196600F024
:1000400034F8196E01211966002018661A6600F04E
:100050002CF8196E196E196E052000F02FF8012189
:100060000842F9D1002199601B49196000215960AB
:100070001A491B48016001219960EB211966A021F2
:10008000196600F012F800219960164914480160C1
:100090000121996001BC002800D000471248134993
:1000A000086003C880F30888084703B5996A0420EC
:1000B0000142FBD001200142F8D103BD02B5186610
:1000C0001866FFF7F2FF186E186E02BD00000240BE
:1000D000000000180000070000035F00212200005C
:1000E000F4000018222000A00001001008ED00E03C
:1000F00000000000000000000000000074B24E7A12
:1001000000200420F7010010C3010010C5010010F9
:10011000C1010010C1010010C1010010C101001097
:10012000C1010010C1010010C1010010D55600101E
:10013000C1010010C10100102B57001075570010AD
:10014000CD010010CD010010CD010010CD01001037
:10015000CD010010CD010010CD010010CD01001027
:10016000CD010010CD010010CD010010CD01001017
:10017000CD010010CD010010CD010010CD01001007
:10018000CD010010CD010010CD010010CD010010F7
:10019000CD010010CD010010CD010010CD010010E7
:1001A000CD010010CD010010CD010010CD010010D7
:1001B000CD010010CD010010CD010010CD010010C7
:1001C00000BE00BE00BE00BE00BE00BE00F04BF888
:1001D000103800BEF2EB8871C8720010EC7200108B
:1001E0003402001090A31AE700202149086006C8D5
:1001F00081F3088810471F48006800282FD10DA4FC
:100200000ECC002902D000F012F8F9E71A491B4A77
:10021000002000E001C19142FCD1194988471949E9
:1002200088471949884700BEFDE701C901C29A42C3
:10023000FBD37047EC720010C00000208802002041
:10024000B47400100000042000000420B4740010F6
:1002500000100420001004200000000070470B482C
:1002600002F060FD0047EFF30580C0B27047000068
:1002700008ED00E0000000D08802002044CB002000
:10028000551300107D030010111300105756000085
:1002900006005250ABB36053FC7100100600525080
:1002A000861C03020C720010060052505422A29DBC
:1002B0001472001005005250DE65F468B47400102A
:1002C000F8B5C0460448054B10B5834203D0044B33
:1002D000002B00D0984710BD880200208802002023
:1002E0000000000006480749091A8B10C90FC918F9
:1002F00010B5491003D0044B002B00D0984710BD17
:1003000088020020880200200000000010B5074C81
:100310002378002B09D1FFF7D5FF054B002B02D026
:10032000044800E000BF0123237010BD88030020B3
:100330000000000058640010054B10B5002B03D0DE
:100340000449054800E000BFFFF7CCFF10BDC046E0
:10035000000000008C0300205864001070B5D02508
:100360002D06802636036E61FA24E400200004F096
:100370009BFAAE61200004F097FAF0E700B583B075
:1003800003F064FD132000F031F8D0231B06802217
:1003900012035A6200230193013300930023802249
:1003A0000449054803F048FF04F0D4F8002003B0E6
:1003B00000BDC046586400105D03001010B58300F6
:1003C000084A944663441C6840226240C02414409A
:1003D0008022520113431C60C000034B9C466044C2
:1003E000416010BD04C001400040014010B5012330
:1003F0008340D0221206936293610521FFF7DEFF4E
:1004000010BD0000EFF3108072B6034B1B68002B89
:10041000FBD0BFF35F8F70472C0100D0BFF35F8F1D
:10042000024B00221A6080F3108870472C0100D024
:10043000F8B506000C001500FFF7E4FFE308F71815
:10044000F15C07222240012393400B4205D1DBB22D
:100450000B433B70FFF7E2FFF8BD2100280000F0DE
:10046000F5FF0000034B1B6802201840431E984113
:10047000C0B2704700C0064000231F2B08D8054AB1
:100480009A189200BFF35F8F002111600133F4E7E7
:100490007047C04640000034054A1078431CDBB268
:1004A0001370172B02D9130010221A707047C04620
:1004B000B001002070B504000D00062001F0E0F846
:1004C000C000290002F082FCC60908D00E4B9E42F3
:1004D00017D87F23184001303500460800E0012579
:1004E0006562A6622C3480208001044300232360CF
:1004F000062001F0C5F88000A901891902F066FC08
:1005000070BD0026014DEBE7FEFF0000FFFF00007D
:10051000002909D00A22064B9C46604443425841B8
:100520004000044BC252704780225200F3E7C0469D
:100530000080FCBFF0C8002070B505000C0006204C
:1005400001F09EF8002829D0164B9D4227D080222A
:10055000D203154B1A60154B1A60154B9B6811009E
:100560009943FAD100212800FFF7D2FF210028008B
:10057000FFF7A0FF2C002C34E96A60224A406E216C
:10058000114080225201224311600A4B2B638023C9
:100590009B01234310221A600323AB6470BD8022A9
:1005A0001204D6E70080034000E0004000F0004065
:1005B00000C000400103000070B505000C000800F9
:1005C00000F07CFB200000F04DFC0849200000F00A
:1005D0008DFBFFF761FF064B9C466044800068601E
:1005E0002C75A400034BE55070BDC046CD0800102B
:1005F00040000034C0C8002010B5002922D0036894
:100600001B7B99421ED8174B9C46614409018368A5
:100610009C4661440C684968002A19D003681B7B1A
:100620009A4215D883680F488446624412019A188A
:1006300010685368020001208B4201D80ED00020C0
:10064000C0B210BD084B094A3B21094800F064FEC6
:10065000054B064A3B21064800F05EFEA242EFD859
:10066000EDE7C046FFFFFF0FBC64001004670010F9
:100670007864001010B500291ED0037B99421BD866
:100680004B005B18033B0468A4466344002919D05F
:10069000002A1DD0914221D0002A25D0047BA242FD
:1006A00022D8046850008018033820188170197807
:1006B00000291FD11A7010BD104B114A6921114831
:1006C00000F02AFE104B114A70310E4800F024FE53
:1006D0000F4B0E4A71210B4800F01EFE0D4B0B4ACA
:1006E0007221084800F018FE044B054A69210548AC
:1006F00000F012FE41701A70DDE7C046F064001091
:10070000C46600100C65001064650010D06600100F
:10071000706500107C65001070B506000D001400B7
:10072000002914D0002A14D08068736898470028E4
:1007300006D0220029003000FFF79CFF280007E0C8
:100740002A0021003000FFF795FF200000E0100094
:1007500070BD0800FCE70000F0B583B00500009212
:1007600001930AAB1C780BAB1F78002C26D00368D2
:100770005A7B944207D10123002B19D1002C3BD185
:10078000200003B0F0BD002C0CD01A7B944209D895
:100790001A6863001B19033BD3189B78002BEBD01E
:1007A0000123E9E73E4B3F4A69213F4800F0B4FD91
:1007B0003E4B3F4A65213F4800F0AEFD03689C7BFD
:1007C000002CDBD012D01A7B94420FD86200121991
:1007D000033A19688C46624451789973002900D114
:1007E000D9730023937053701370C7E72C4B2D4AB5
:1007F00069212D4800F090FD002C3AD02B681B7B1E
:100800009C4236D82C4BE3181B01AA6894466344DB
:10081000009A1A60019A5A60089A9A60099ADA60F6
:100820002E68002C2BD030D0337B9C422DD8630017
:100830001B19033B32689446634400229A705A7035
:100840001A70717B22003000FFF766FF70738442DC
:1008500000D095E7287D009A019B00F08FFA061ED4
:1008600001D0002F17D00C9B002B00D188E71E7001
:1008700086E7124B124A3B210E4800F04DFD114B0A
:10088000114AA621084800F047FD054B054A692199
:10089000054800F041FD2868210000F0BBFCE2E7BC
:1008A000F0640010C46600100C6500109465001020
:1008B0002467001078640010FFFFFF0FBC64001075
:1008C0000467001074640010E4660010F0B5DE46A2
:1008D00057464E464546E0B58BB009900023089335
:1008E0008200B34BD658370052E0B24BB24A3F2198
:1008F000B24800F011FDB24BB24A3B21B24800F0C1
:100900000BFD002901D1002869D10021404600F0EB
:1009100077FCA04219D12A686B6806920793AB68EE
:100920009846EB689A464346002B14D0002C18D00A
:100930003B681B7B9C4214D8631EFA68D35C089307
:100940001B0218433861002015E0A04BA04A8C21FF
:100950009D4800F0E1FC9F4B9D4A90219A4800F091
:10096000DBFC974B9C4A4021974800F0D5FC0023C4
:100970009A46984600207B68BFF35F8F00221A607A
:1009800086F310884346002B32D1002800D107E1BE
:1009900000F0A0F902000B1EA7DB0020002106904A
:1009A00007917868EFF3108672B601680029FCD0D1
:1009B000BFF35F8F396888464C7B002CD7D09AD024
:1009C000097B8C4297D8854965182D01B9688C46FA
:1009D000654428686968801A9941002991DD2A6870
:1009E0006B68099800F0CAF900239A469846C2E756
:1009F000089B1B022343994651461800C047050037
:100A00000E007A68EFF3108B72B6136859424B41AF
:100A1000D9B2002BF9D1BFF35F8F002E26DB002E59
:100A200052DD3B69002B53D04B4572D100F052F997
:100A300002000B1E73DB010018005219734198422B
:100A400002D804D1914202D901225242D317002B7D
:100A50006BDB002104910131039102945146019115
:100A6000414600913800FFF777FE49E03B69002BD3
:100A7000D5D04B451CD1069A079B10001900521B7C
:100A8000B341994202D804D1904202D90122524284
:100A9000D317002B12DB0021049101310391029442
:100AA00051460191414600913800FFF755FE27E07D
:100AB0004B4B474A9F21444800F02EFC3D4B3E4A99
:100AC0003F213E4800F028FC002E01D1002DA8D186
:100AD0003A68002C45D0537B9C422CD1012100293F
:100AE0003FD1D37B002B42D1D473002C52D03B6832
:100AF0001B7B9C424ED8FA68013C135D01331355B1
:100B000000233B617A68BFF35F8F13608BF310881B
:100B10003EE7334B2E4AA2212B4800F0FDFB254B2C
:100B2000254A3F21254800F0F7FB224B224A3F216E
:100B3000224800F0F1FB002C0DD0137B9C420AD818
:100B400063001B19033B1068844663449B78002BA9
:100B5000C5D00121C3E7234B234A6921234800F074
:100B6000DBFB234B234AF721204800F0D5FB002B69
:100B70000AD0117B8B4207D85900CB18033B116870
:100B80008C4663445C70AFE7164B174A69211748DF
:100B900000F0C2FB0A4B104A40210B4800F0BCFB9E
:100BA0000BB03CBC90469946A246AB46F0BDC04651
:100BB000C0C80020BC650010AC660010D8650010ED
:100BC000BC640010046700107864001028660010F0
:100BD0003C6700104066001010670010FFFFFF0F19
:100BE0004C660010F0640010C46600100C65001024
:100BF00088660010F466001010B50A4B5B68002B85
:100C000004D00A21084800F04DF910BD054C23001E
:100C1000064A1021206800F013FA03212000FFF794
:100C2000CBFCEEE7B4010020D4C80020F905001089
:100C300070B5EFF305833F2018401038EFF31084B0
:100C400072B6194B1B68002BFBD0BFF35F8F0123DB
:100C500019008140154A5163154A12781500C540A4
:100C60002B4214D0114B5D6A8300124E9B599D425A
:100C700006D38300104D5B598A430D490A7007E083
:100C80000A4A031D9B0099589950002300E0002355
:100C9000BFF35F8F044A0021116084F31088002B9A
:100CA00000D0984770BDC046280100D000400540E4
:100CB000EEC80020D8C8002040C8002010B50100B0
:100CC000024A0348FFF7B4FB10BDC0465867001046
:100CD000ECC80020044B5B6A034A906A1900536A0F
:100CE0009942F9D17047C0460040054070B50400F4
:100CF0000D00EFF3108672B61B4B1B68002BFBD068
:100D0000BFF35F8F002D1CD0200000F031FD174B8A
:100D100083420BD01900200000F032FD0121200099
:100D200000F01EFD0123A340114A1360A400114BE3
:100D3000E550BFF35F8F0C4B00221A6086F31088DA
:100D400070BDA2000B4B0021D1500122A2400A49E4
:100D50000B7893430B700549200000F03BFD002108
:100D6000200000F0FDFCE4E7280100D0310C001069
:100D70003860054040C80020EEC80020F0B5DE46CF
:100D800000B584B00400150001921E000293FFF725
:100D9000A1FF03958E4202D84ED185424CD9EFF384
:100DA000108B72B6274B1B68002BFBD0BFF35F8FF5
:100DB000254A17780125A540EBB23B431370234B1E
:100DC0005D63221D92000199D150A2002049029832
:100DD00050501B6A2B4212D11C4B1B6C2B4208D06B
:100DE0000020BFF35F8F174B00221A608BF310882F
:100DF00023E0184B184AC121184800F08DFAFFF77C
:100E000069FF8E4214D802D1039B834210D80E4B47
:100E10001B78BB420ED00D4B1D625D631F2004404A
:100E20000123A3400E4A1360074B1F701E38D8E7FA
:100E30000020D6E70120D4E7012004B004BC93468B
:100E4000F0BDC046280100D0EEC80020004005409B
:100E5000D8C800207C670010EC670010A067001065
:100E600080E200E010B5EFF3108472B60A4B1B6805
:100E7000002BFBD0BFF35F8F01238340074A13622F
:100E800007490A789A430A70BFF35F8F024B00222A
:100E90001A6084F3108810BD280100D0004005407E
:100EA000EEC80020024B9C466144890001607047F7
:100EB0004000003410B50400FFF7EEFA01002000F6
:100EC000FFF7F0FFFF232371BFF35F8F10BD10B555
:100ED0000400FFF7E1FA01002000FFF7E3FFFF2322
:100EE000237100236371BFF35F8F10BD10B500291C
:100EF0001ED0037B99421BD84B005B18033B046850
:100F0000A4466344002919D0002A1DD0914221D063
:100F1000002A25D0047BA24222D804685000801801
:100F2000033820188170197800291FD11A7010BD5C
:100F3000104B114A6921114800F0EEF9104B114A8B
:100F400070310E4800F0E8F90F4B0E4A71210B4842
:100F500000F0E2F90D4B0B4A7221084800F0DCF971
:100F6000044B054A6921054800F0D6F941701A7012
:100F7000DDE7C046F06400106C6900100C650010DD
:100F80006465001078690010706500107C650010C1
:100F900070B506000D001400002914D0002A14D0EA
:100FA000806873689847002806D022002900300026
:100FB000FFF79CFF280007E02A0021003000FFF720
:100FC00095FF200000E0100070BD0800FCE7000065
:100FD00010B50023437301338373037BC373012371
:100FE000027B9A4214D9002B0CD0027B934209D881
:100FF0005A00D218033A01688C4662440133DBB2CE
:101000005370EDE70B4B0C4A69210C4800F084F952
:10101000002A09D0924207D8016853009A18033A6F
:101020008A180023537010BD024B034A69210348FC
:1010300000F072F9F06400106C6900100C6500108B
:1010400010B5017342608360FFF7C2FF10BD00005E
:1010500070B50400081E00D170BD002934D0237B78
:10106000994231D84B005B18033B22689446634495
:101070005A78002AF0D02DD0237B9A422AD85300E8
:101080009B18033B21688C4663445D7800215970AE
:10109000002825D0237B984222D843001B18033B0D
:1010A00021688C4663440021597001002000FFF73D
:1010B0006FFF060029002000FFF7CAFF0200310081
:1010C0002000FFF765FFC7E7084B094A6921094877
:1010D00000F022F9054B064A6921064800F01CF988
:1010E000024B034A6921034800F016F9F06400102E
:1010F0006C6900100C65001070B505000C0016003E
:10110000002928D02DD0037B99422AD84B005B18A8
:10111000033B0268944663445A78002A27D19A78A0
:10112000002A2AD11978FFF793FF0300002E03D07D
:10113000EA7B002A27D1EC73002B37D1002C49D051
:101140002B7B9C4246D82B6861000C19033C1C1970
:101150000023637070BD224B224A3821224800F0E0
:10116000DBF8224B224A6921224800F0D5F8224BB5
:101170001C4A3A211C4800F0CFF8204B194A3B2169
:10118000194800F0C9F8002A0AD0297B8A4207D8FA
:1011900051008A18033A29688C4662445470CAE7A1
:1011A000124B134A6921134800F0B6F8002B0BD0FC
:1011B0002A7B934208D843001B18033B2A689446B5
:1011C000634400229A70B9E7084B094A692109482B
:1011D00000F0A2F8054B064A6921064800F09CF889
:1011E000AC6800108C690010B4680010F064001046
:1011F0006C6900100C650010F86800102069001080
:1012000070B504000A00457B2900FFF775FF607385
:10121000280070BD70B50400002966D0437B8B4266
:101220000ED0002911D0037B99420ED84B005B18D9
:10123000033B0268D0188378002B0CD1002055E0C6
:101240000121FFF7DDFF012050E0294B294A6921E8
:10125000294800F061F8002B1FD0227B93421CD854
:1012600025685A00D318033BEA18EB5C8B421AD06E
:10127000002B1BD0227B934218D85A00D318033B73
:101280002268D21853788B4216D0002BF0D11B4B1A
:101290001B4A67211B4800F03FF8154B154A69218E
:1012A000154800F039F84378137007E0104B114AE5
:1012B0006921114800F030F843785370002383709F
:1012C000437001222000FFF717FF0200617B81427B
:1012D00005D02000FFF75CFE6073012006E00A4B9A
:1012E000074A6D21074800F017F8002070BDC0467E
:1012F000F06400106C6900100C6500104469001067
:10130000A0690010B46800104C69001000BEFDE731
:1013100010B5FFF7FBFF000010B582B00C001900FC
:10132000002A0CD0084B002A0BD001920093230016
:101330000200064802F07EFD0120FFF7E7FF044BA4
:10134000F1E7034AF1E7C046B8690010C869001028
:10135000C469001070B52B4B2B4A1A602B4B2C4ADA
:101360001A602C4B9A682A4B9343FAD12A4C2B4B88
:101370009C4202D208CC9847F9E700F001F9234BD0
:10138000274A1A60234B9B68DB43DB01FAD1254BCC
:1013900040229A675A671A67DA66234C09E0234BA2
:1013A000234A83212348FFF7B7FF2000FFF782FD80
:1013B0000834214B9C4209D22368002BF5D0012B25
:1013C000EDD12000FFF783FD0834F2E71B4CA16844
:1013D0001B4DC022280002F0E3FBA560FEF743FF8F
:1013E000002800D000BEFFF747F800F041FBFFF7F0
:1013F00003FC144C144B9C4202D208CC9847F9E7EA
:1014000070BDC04600E00040BFCDFBFE00F00040D4
:10141000FE7F3C0000C000407402002084020020D7
:10142000FFFFFF0100F001406C020020F86900108E
:10143000786A0010186A00107402002000ED00E0C5
:101440000000002084020020880200200FB400B5B4
:1014500083B0084802F0BCFC049B002B07D005A910
:101460000191180002F0C4FC034802F0B1FC012015
:10147000FFF74CFF646A0010746A0010F8B5DE468E
:1014800057464E464546E0B505000F0092461E0001
:101490000A9B9E424ED3330E994636020A9A002387
:1014A0003000494601F0D4FC80466C006419A40069
:1014B0002E4B9C4664446368834200D260602B1FBD
:1014C000DBB29B46012B3BD9C0239B0123438022E7
:1014D00012011A60AB00264A9958002905D05069BC
:1014E00001F074FC01300138FDD153465A012368E4
:1014F0005A40E0231A4080235B0123431A605A4676
:10150000012A28D980239B012343802212011A60DB
:1015100043466360424600233000494601F098FC90
:10152000AD00134B585101203CBC90469946A24651
:10153000AB46F8BD0F4B104A2D211048FFF7ECFECB
:10154000012FC1D1C0239B01234303221A60A3684A
:10155000DB07FCD5C9E72168794003220A401A60FD
:10156000A3680122BA401A42FAD0CBE700800040BB
:1015700050C80020886A0010EC6A00109C6A0010B5
:1015800030B583B00C2000F00DFBFEF76BFF002898
:101590000DD00023092B05D899002D4A2D488850DD
:1015A0000133F7E72A4B2C4A5A6203B030BD2B4B6C
:1015B00000229A6700F0FEFA294B01221A60274B9D
:1015C0005B6C012BFBD1274B03221A60234B9B6BD7
:1015D000012BFBD1022400940533234A0121234827
:1015E00000F054FA00940523214A0121214800F01B
:1015F0004DFA214B0093002202210420FFF73EFF09
:101600001E4D00952B00002201210520FFF736FF1B
:10161000104C00942300002200210720FFF72EFF2A
:1016200000942300002200210820FFF727FF0A4B27
:1016300000932300002200210920FFF71FFF0095DF
:101640002B00002200210620FFF718FFADE7C0465F
:1016500050C80020006CDC021BB700000080004076
:101660003CB0004030B00040002F6859008002407C
:1016700000389C1C00C00240001BB7004059730793
:101680008000014BC058704750C80020074B9B6832
:10169000103080001950BFF35F8FBFF35F8F044B92
:1016A0000021196082F310887047C04600ED00E009
:1016B000240100D010B5091A04394808090B05D1D6
:1016C0004005400D044B184380B210BD034B044A43
:1016D0008B210448FFF720FE00E0FFFFFC6A0010AA
:1016E000E46C00100C6B001010B5091A04394C089A
:1016F000090B08D14905490D064A11430180064BE3
:101700002343438010BD054B054A93210548FFF74D
:1017100003FEC04600F0FFFF00F8FFFFFC6A001068
:10172000F06C00100C6B001001238340034A10681A
:101730001840431E9841C0B27047C04600E100E027
:10174000002904D0034B1860034B18607047034B0B
:101750001860FBE780E200E000E100E080E100E0EB
:1017600010B5012383401800FFF7EAFF10BD000009
:10177000024B9B6810308000C058704700ED00E0BD
:1017800070B504000D00EFF3108672B60C4B1B68A9
:10179000002BFBD0BFF35F8F2000FFF7E9FF094B61
:1017A000984201D0A84205D1320029002000FFF75D
:1017B0006DFF70BD044B054A6E210548FFF7ACFD77
:1017C000240100D0CD010010546B0010C86C001033
:1017D0000C6B0010F0B5CE46474680B583B00600CE
:1017E0000D00EFF3108872B6574B1B68002BFBD02F
:1017F000BFF35F8F554B9A6834001034A300D7585D
:10180000534B9F4207D0AF4200D19BE00197514B11
:10181000FB1A2F2B09D9424639003000FFF736FF5B
:1018200003B00CBC90469946F0BD3000FFF77CFF3A
:10183000814600213000FFF793FFBFF35F8FFEF773
:1018400012FD002801D0844219D10123019C9C4340
:10185000414923003F4A9B1A5B415943090D49B254
:101860000022A368AB4212D00622A256002A0DDB4A
:1018700053009B189B002200364CE418F1E71E2110
:10188000364B374AFF313748FFF746FD2200AB425F
:1018900051D106256557002D39DB6B005B199A0085
:1018A0002C4B9B189A68A260DA79E27106229A564C
:1018B000A2719B795BB2002B10DABD200002A080E0
:1018C0006B005B199B00234AD318274A1178997142
:1018D000157049463000FFF743FF9CE7201D6B0061
:1018E0005B199B001B4A9B181A1D9B88D90A1C294F
:1018F00007D159054915023149005118FFF7DAFEA1
:10190000DDE71A4B1A4A99211648FFF705FD002812
:101910000CD1002A08D0FF239371164B9380124BF1
:101920001A78A2711970D4E7094FF8E7201D1249FF
:10193000FFF7DAFECDE7A921104B094A4900094813
:10194000FFF7EAFC024F66E7240100D000ED00E05B
:10195000CD010010DC010020AAAA0000686C001074
:10196000186D00100C6B0010EDC80020506C0010BA
:10197000086D001000BDFFFF160200208C6C0010E7
:10198000F8B50400012606432D4BF31A2F2B28D857
:10199000FEF769FC00282BD0EFF3108772B6294BB5
:1019A0001B68002BFBD0BFF35F8F274D220024491B
:1019B000521A524155432D0D6DB2244B9B68800045
:1019C0001B58B3421BD00022032A32D853009B1865
:1019D0009B001B49CB189B795BB2AB421FD00132F5
:1019E000F2E778211A4B1B4AFF311B48FFF794FCA2
:1019F000BD211A4B174A49001748FFF78DFC134BBE
:101A00009B68174A1A50174B1A78A2711D70BFF3C2
:101A10005F8F0C4B00221A6087F31088F8BD080016
:101A20005300991889004118FF268E710E4A8A804A
:101A3000E9E78C210D4B074AFF310748FFF76CFCA3
:101A4000DC010020240100D0AAAA000000ED00E083
:101A5000946C00102C6D00100C6B0010BC6C00100E
:101A6000CD010010EDC8002000BDFFFF446900104B
:101A70000022044B02E0044902C30132072AFAD9CA
:101A80007047C04600E400E080808080F0B5CE461C
:101A900000B504000E0091461F000C2001F096F9DD
:101AA000050043011B1A9901C91AC90009188901C7
:101AB000484601F08BF90200103A98235B009A42E5
:101AC00033D87B1E062B36D8069B013B062B32D81B
:101AD000069B9F4235D34B461A09AA4237D33F048F
:101AE000069B1D032F432368002B36DB234B9C42B0
:101AF00041D080256D01224B1D60224B1D60224A82
:101B000092682B009343FAD12660A060221DC02367
:101B10009B01134321221A602268002AFCDAE76045
:101B200008221A6004BC9146F0BD184B184A1621D1
:101B30001848FFF7F1FB184B154A19211548FFF714
:101B4000EBFB164B124A1F211248FFF7E5FB144B23
:101B50000F4A22210F48FFF7DFFB22683F23134083
:101B6000B342C3D1A3681B051B0D8342BED1E368FA
:101B7000002FBBD1D6E78025AD01BCE700C00240F5
:101B800000E0004000F0004000C00040486D001040
:101B90002C6E0010646D0010AC6D0010F86D00101C
:101BA000106E001080239B000343014AD3627047EC
:101BB00000800540064BAA2212011A602F22DA602B
:101BC000044B054A1A60024B5B68002BFBDA704736
:101BD000004002400060024000B0FA00704710B5BB
:101BE000002802D00B684968984710BD010000200A
:101BF0000A681378303BDBB2092B08D883001B1826
:101C00005B00501C08601078C0183038F0E770474F
:101C1000F0B5DE4657464E464546E0B583B093469E
:101C20001F000C9B9A460D9C0E9B99460F9B9B0791
:101C300003D0B8460F00060022E00192A346884672
:101C40004E46B9460700B44207D2551C4B464146A2
:101C50002020B84701342A00F5E73D004F465C4696
:101C6000019B9B46B1464646B84637002E0007E02A
:101C7000013C551C5346185D43463900B0472A00C5
:101C8000002CF5D135003E0047460F9B9B0707D43B
:101C9000100003B03CBC90469946A246AB46F0BD4E
:101CA000B0464E46B9462F005D46531BB342EFD2B5
:101CB000541C4B4641462020B8472200F5E7F0B5BA
:101CC000CE46474680B585B0944698460C9D0D9CFF
:101CD0000EAB1B789946109A119B129EB7071BD426
:101CE000002B08D0F70706D54F46002F02D10C373E
:101CF000374200D0013B944208D21F2C06D830272F
:101D00002F550134F7E730272F550134F70703D556
:101D10009C4201D21F2CF6D9F70615D5770505D4BC
:101D2000002C03D0944224D09C4222D00F9A102A37
:101D30002BD00F9A102A30D00F9A022A35D01F2CA0
:101D400002D830222A5501341F2C05D84A46002AD1
:101D500031D02D222A550134039602930194009527
:101D600043466246FFF754FF05B00CBC90469946C7
:101D7000F0BD621E012C06D00F9F102F01D0140061
:101D8000D4E7023CD2E71400D0E7B206D1D41F2C2E
:101D9000CFD878222A550134D1E7B206CCD51F2CF2
:101DA000CAD858222A550134C9E71F2CC7D8603237
:101DB0002A550134C3E7720703D52B222A55013473
:101DC000CAE73207C8D520222A550134C4E7F0B546
:101DD000DE4657464E464546E0B593B081468A46B4
:101DE000089209931CAB10CB1B789B461E9D219B30
:101DF0009846002C03D1102342469A4390468023F4
:101E0000DB0046461E4042461A4212D0002C22D029
:101E100000260EE03033D9B2771C0AAB9955290061
:101E2000200000F0D3FFAC4216D31F2F14D83E0081
:101E300004002900200000F0C9FFCBB2092BE9D92A
:101E40004246920605D54121C918C9B20A39C9B21C
:101E5000E2E76121F8E7270043460693209B0593BC
:101E60001F9B049303955B46029301970AAB009373
:101E7000099B089A51464846FFF721FF13B03CBC26
:101E800090469946A246AB46F0BDF0B5DE465746B1
:101E90004E464546E0B595B0089009910A920B93DD
:101EA0001E9E1F9C20AB1B789B46229B9946239D20
:101EB000269B9A463300234303D1103352469A435C
:101EC00092468023DB0057461F4052461A4219D0E3
:101ED000330023432DD0002714E03033DAB27B1CCB
:101EE00098460CABDA554A462B003000210000F032
:101EF000AFFFA5421FD819D043461F2B1BD847461A
:101F000006000C004A462B003000210000F0A0FF24
:101F1000D3B2092BE1D95246920605D54122D218F7
:101F2000D2B20A3AD2B2DAE76122F8E7B145E3D990
:101F300001E00023984653460693259B0593249B76
:101F400004934B4603935B460293434601930CABC9
:101F500000930B9B0A9A09990898FFF7B0FE15B0F9
:101F60003CBC90469946A246AB46F0BDF0B5DE4675
:101F700057464E464546E0B591B083468A460C9298
:101F800098461A9C08941B9D099522002B0020005E
:101F9000290001F0ECF9002800D0E5E001225242CE
:101FA000D34B2000290001F0DDF9002800D0DBE050
:101FB00001225242CF4B2000290001F0BDF9002838
:101FC00000D0D1E000220023089D2800099E3100A6
:101FD00001F0B2F9002800D0DDE0089809990690D8
:101FE00007918023DB001E9A1A400D921E9A1A4216
:101FF00001D106231C930698079904000D000A00DE
:102000000600024300D1CDE0080D4005400DBA4C5A
:10201000A44660440A03120BB84B13431F0001F09F
:10202000B9F9B74AB74B01F044F9B74AB74B01F0D9
:1020300019F904000D000022B54B3000390001F001
:1020400008F9B44AB44B01F034F902000B00200047
:10205000290001F007F901F0B5F9814601F09AF97C
:1020600004000D00AD4AAE4B01F023F90022AD4B48
:1020700001F0F8F801F0A6F90600AB4AAB4B2000DE
:10208000290001F016F904000D00300001F082F97A
:10209000A74AA84B01F00DF902000B00200029000F
:1020A00001F0D7F804000D0002000B0001F001F967
:1020B0000A900B91A04BF31800261F0522002B005D
:1020C0002000290001F0CEF80E900F9122002B0085
:1020D00000208021C90501F0BCF804000D00002299
:1020E000964B0A980B9901F0C6F80022944B01F028
:1020F000B9F802000B000A980B9901F0BCF8002215
:10210000904B01F0AFF802000B000A980B9901F018
:10211000B2F802000B002000290001F0A3F8020031
:102120000B000E980F9901F0A6F80022734B01F0F6
:1021300099F832003B0001F0BCF806000F000400E3
:102140000D00069A079B01F00DF900282CD0012301
:102150005B429C46E1440022794B3000390001F09B
:102160008AF804000D001FE01E9B04931D9B03933F
:102170001C9B0293089A099B0092019343460C9A78
:102180005146584600F0F8F811B03CBC90469946CC
:10219000A246AB46F0BD069580231B069C466644CE
:1021A00007961EE7002399464B466333C62B1FD87C
:1021B00004261E9B1B0527D52B00234310D0624A03
:1021C000624B0698079901F0C5F8002800D183E01A
:1021D00000225F4B0698079901F0AEF800287BD0EB
:1021E0001C9B4B4506DD4A46981A431E1C9303E090
:1021F0000526DEE700231C938023DB001E9A1A438A
:102200001E920026002399461D9B9E426ED29F1B64
:1022100002231E9A1A400A921E9A134202D0002EDE
:1022200000D000274B46002B07D022002B00069839
:10223000079901F020F806900791002200230898E2
:10224000099901F079F8002800D085E0414B1E9AE9
:102250001340049303971C9B0293069B079C0093D7
:10226000019443460C9A5146584600F085F8002EDA
:1022700000D189E71E9B9B067AD54525441C434621
:10228000020051462800D8474B46DA179B185340A6
:1022900005220592013E0496002203920A32029220
:1022A0004A46D00F019000934346220051465846BB
:1022B000FFF78DFD0A9B002B00D165E702005F460A
:1022C0000C9E1D9D931BAB4254D2541C4346514659
:1022D0002020B8472200F5E71C9B002B94D00D9BD3
:1022E000002B91D01C9B013B1C938DE700278FE7AF
:1022F000FFFFEF7FFFFFEFFF01FCFFFF0000F03F5C
:10230000FB799F501344D33FB3C8608B288AC63FE4
:102310000000F83F61436F63A787D23F71A379093B
:102320004F930A400000E03F1655B5BBB16B024029
:10233000EF39FAFE422EE63FFF03000000002C407A
:1023400000002440000018402D431CEBE2361A3FE9
:1023500080842E41FFF7FFFF069C079D2200290085
:1023600080200006844661440B00069207936DE7C7
:10237000652583E7100007E7F0B5DE4657464E4671
:102380004546E0B595B00690079193469946209F43
:102390001E9A1F9B1000190000F0E9FF002831D1A0
:1023A00001225242BF4B1E981F9900F0C5FF002822
:1023B00037D101225242BC4B1E981F9900F0D2FF28
:1023C00000283DD10022B94B1E981F9900F0CAFF8A
:1023D000002850D10022B64B1E981F9900F0ACFF88
:1023E000002848D1002200231E981F9900F0A4FF66
:1023F000002850D100239846229B5B0500D4B6E00C
:10240000002458E0229B0393219B02930323019312
:10241000A84B00934B465A4607990698FFF7F8FBDE
:102420000EE1229B0393219B029304230193A24B71
:1024300000934B465A4607990698FFF7E9FBFFE0E1
:102440000423229A1A4022990B4210D09B4B002A57
:102450000FD00422229903912199029101920093B5
:102460004B465A4607990698FFF7D2FBE8E0944B93
:10247000EDE70322EEE7229B0493219B039302974F
:102480001E9B1F9C009301944B465A460799069841
:10249000FFF76CFDD4E01E9A1F9B0020002100F086
:1024A000D8FE1E901F9101239846A5E70CAB302261
:1024B0001A55013F01341F2C01D8092FF6D81E9858
:1024C0001F9900F07FFF050000F064FF02000B0081
:1024D0001E981F9900F0BDFEFA007A4B9B181A68EF
:1024E0005B680A920B9300F0E4FE0890099100F0FB
:1024F0008DFF060000F04AFF02000B0008980999C2
:1025000000F0A7FE0890099100226F4B00F02AFF0F
:1025100000282ED00136300000F038FF02000B00FA
:102520000A980B9900F00EFF002801D00135002613
:10253000002F2CD1280000F02DFF02000B001E9868
:102540001F9900F086FE06000F0000225E4B00F08F
:10255000F3FE002842D100225B4B3000390000F02E
:1025600001FF00283AD1EB0738D5013536E00627C0
:1025700046E70022544B0898099900F0DDFE002838
:10258000D6D1002E01D0F307D2D50136D0E7AA4626
:102590001F2C11D8013F0A21300000F017FC651CE8
:1025A00030310CAB19550A21300000F00FFC092E18
:1025B00026D906002C00EBE7554604E00CAA302192
:1025C00011551F0001341F2C02D87B1E002FF5D19E
:1025D0001F2C03D80CAB2E221A5501341F2C14D8F3
:1025E0000A21280000F0CAFB661C30310CAB1955DB
:1025F0000A21280000F0C2FB051E05D03400EDE7DB
:102600002B0055461C00DEE734000323229A1340BA
:10261000012B1CD01F2C06D84346002B32D00CAB0C
:102620002D221A550134229B0393219B029301947E
:102630000CAB00934B465A4607990698FFF7E8FA09
:1026400015B03CBC90469946A246AB46F0BD219BD6
:10265000002B13D04346002B02D10C3313420FD072
:10266000219B013B2193190003E00CAB30221A554A
:1026700001348C42CED21F2CF7D9CBE72199F8E751
:102680002199F6E7229B5B0704D50CAB2B221A5548
:102690000134C8E7229B1B07C5D50CAB20221A5575
:1026A0000134C0E7FFFFEFFFFFFFEF7F65CDCD41B6
:1026B00065CDCDC1446E0010486E00103C6E001018
:1026C000386E0010307000100000E03FF0B5DE46BC
:1026D00057464E464546E0B593B082468B469046F7
:1026E0001193002900D1ECE200275546119B187880
:1026F000002800D1E8E2252809D07C1C43463A0096
:102700005946A847119B013311932700EEE7013387
:10271000119300241DE00B00303BDBB2092B37D9AD
:102720002A293AD000230A93119B1A782E2A44D0E2
:1027300000239A46119A1378683BD9B2122900D91E
:1027400080E08B00CB49CB589F4601231C430132CC
:102750001192119A11780B00203BD8B21028DAD8C8
:102760008300C548C3589F4602231C43013211927F
:10277000EFE704231C4301321192EAE708231C43CC
:1027800001321192E5E710231C4301321192E0E778
:1027900011A8FFF72BFA0A90C6E71C9B1A1D1C9282
:1027A0001868002804DB0A90119B01331193BBE7E2
:1027B00002231C4343420A93F6E78022D2001443CB
:1027C0005A1C11925A781300303BDBB2092B04D902
:1027D0002A2A07D000239A46ACE711A8FFF706FA89
:1027E0008246A7E71C9B1A1D1C921868002804DB70
:1027F0008246119B013311939CE70020F8E7802368
:102800005B002343511C119152786C2A01D01C00AB
:1028100018E0C0239B001C430131119112E080237A
:102820002343511C11915278682A01D01C0009E001
:10283000C0231C430131119104E080235B001C4341
:1028400001321192119B18780300253BDAB2532A0A
:1028500000D92CE29300894AD3589F4680239B00DD
:102860001C4301321192EDE780235B001C430132CF
:102870001192E7E7782809D0582838D06F2838D047
:10288000622838D010239C430A2600E010265828DE
:1028900033D0692803D0642801D00C229443630507
:1028A00001D50122944369282AD0642828D0A305A1
:1028B00000D59FE0E30500D5B8E0630600D4CAE088
:1028C0001C9A111D1C911168FF220A4005940A9B55
:1028D00004935346039302960023019300924346C8
:1028E0003A0059462800FFF772FA070027E0102641
:1028F000CDE70826CBE70226C9E720221443C8E724
:10290000A30520D4E30550D4630666D51C9A111D97
:102910001C911168FF220A40D317D1185940059421
:102920000A9B0493534603930296D20F019200919F
:1029300043463A0059462800FFF749FA0700119B21
:1029400001331193D2E61C9BDA1D07218A43110043
:1029500008311C91116853689C46DB170C930D934A
:102960000C9A0D9B100048400E90624653400F9306
:102970000E980F990C9A0D9B801A99410E900F9109
:1029800008940A9B079353460693049600230593E5
:102990006346DA0F02920090019143463A0059468D
:1029A0002800FFF772FA0700C9E71C9A111D1C9155
:1029B0001268D317D118594005940A9B04935346C3
:1029C00003930296D20F0192009143463A00594672
:1029D0002800FFF7FCF90700B1E7230605D51C9A8C
:1029E000111D1C910023D25E96E71C9A111D1C91AB
:1029F000126891E71C9BDA1D07218A4311000831F8
:102A00001C9108940A9B079353460693049600234F
:102A100005930293136854680093019443463A0067
:102A200059462800FFF731FA070088E71C9A111D64
:102A30001C9105940A9B049353460393029600232A
:102A400001931368009343463A0059462800FFF764
:102A5000BEF9070073E7230606D51C9A111D1C91C9
:102A600012681204120C31E71C9A111D1C91126895
:102A70002CE7C046506E00109C6E0010E06E0010F7
:102A800046281AD01C9B0733072293431A000832AA
:102A90001C9204940A9A0392524602925C681B6844
:102AA0000093019443463A0059462800FFF764FC1E
:102AB0000700119B0133119318E620231C43E1E723
:102AC000672801D0472802D180231B011C434528D9
:102AD00001D0472801D120231C431C9B0733072228
:102AE00093431A0008321C9204940A9A03925246A5
:102AF00002925C681B680093019443463A00594671
:102B00002800FFF733FA0700119B01331193EDE51D
:102B100002231A002240924623421FD001241C9B0C
:102B20001A1D1C927A1C9146187843463A00594661
:102B3000A8475346002B16D1119B013311934F46E2
:102B4000D4E5561C434659462020B847230032009E
:102B50005C1C9D42F5D83D001700E0E701233A00D8
:102B60002F000A9DF4E74A46A9460A9D06E0571C35
:102B7000434659462020C84734003A00661CA54207
:102B8000F5D84D469146D7E71C9B1A1D1C921B6831
:102B900099465346002B00D1013B4E4601E00136D9
:102BA00013003278002A02D05A1E002BF7D14B4670
:102BB000F21A10928023DB0026001E401C4203D034
:102BC000524501D95346109302231A0022400B921A
:102BD000234205D03A0037004C46A946554620E02E
:102BE0003A00109B5F46B3462E0006E0551C434654
:102BF00039002020B04723002A005C1C0A99994222
:102C0000F4D835005E46BB46109437004C46A946C2
:102C1000554606E01D000134561C43465946C84738
:102C200032002078002804D0002FF4D06B1E002D35
:102C3000F0D117004D460B9B002B03D1119B0133A4
:102C4000119353E50A9F109B06E0561C43465946D4
:102C50002020A847230032005C1C9F42F5D81700B3
:102C6000ECE721231C431C9B1A1D1C921B6800933C
:102C700005940823049353460393102302930023DF
:102C8000019343463A0059462800FFF7A0F8070091
:102C9000119B0133119329E57C1C43463A005946A8
:102CA0002520A847119B0133119327001EE57C1CAA
:102CB00043463A005946A847119B01331193270018
:102CC00014E50B4B9A460FE5AA4647450DD34346FC
:102CD0005A1E434659460020D047380013B03CBC2A
:102CE00090469946A246AB46F0BD3A00F1E7C04691
:102CF000DD1B001000B585B0029003910121009307
:102D000013004A4202A90248FFF7E0FC05B000BDEB
:102D1000DF1B001001480421014B1847300200203E
:102D2000452D001010B5010018231B8814221088AF
:102D3000984710BD10B5010018231B881622108873
:102D4000984710BDF0B5C64600B507000E00002537
:102D50000123984600E00135B5420AD2AC003C1987
:102D60002068FFF7DFFF20600028F4D10023984699
:102D7000F1E7404604BC9046F0BD0000124A936F54
:102D80009B0815D29066D166002905D0FFE7FFE7C2
:102D9000FFE7516F106F704704B580210906C21715
:102DA0005140002800D0C84303F03EFB002104BD81
:102DB000F0B5146E556E576F166FFFF7E3FF14668C
:102DC000556657671667F0BD000000D0114A936F33
:102DD0009B0813D210665166002905D0FFE7FFE774
:102DE000FFE7516F106F704704B5002801D0002035
:102DF000C04303F019FB002104BDC046F0B5146EBA
:102E0000556E576F166FFFF7E5FF146655665767E7
:102E10001667F0BD000000D094464E4A926F9208AB
:102E2000624601D230E0C046F0B54A4EB56F6D083B
:102E3000FCD3346E756E776F366F00F025F89446CC
:102E4000444A14665566576716676246F0BDC04629
:102E50009446404A926F9208624601D258E0C046BA
:102E6000F0B53C4EB56F6D08FCD3346E756E776F60
:102E7000366F00F04DF89446364A1466556657672B
:102E800016676246F0BDC046002B24DB11D0002936
:102E90003EDA00B5C943404200D1013100F038F8B4
:102EA000C943404200D10131DB43524200D10133DA
:102EB00000BD002AEBD1002801D1002905D0002057
:102EC000C90FC90701D1C043410800B503F0A4FAF6
:102ED0000022002300BD00B500290ADBDB4352427B
:102EE00000D1013300F014F8C943404200D1013150
:102EF00000BDC943404200D10131DB43524200D101
:102F0000013300F005F8DB43524200D1013300BD2C
:102F1000002923D1002B18D1002A0CD0BC460D4F1C
:102F200038667A6600210023FFE7FFE7FFE77A6F44
:102F3000386F67467047002801D00748010000B588
:102F400003F06AFA0022002300BD02000B000020FB
:102F500000217047000000D0FFFFFFFF002B00D0D2
:102F6000BFE0130C28D1002AE7D080B4114F396696
:102F70007A66FFE7FFE730B4040C7B6F396F1B0400
:102F800023433B667A66FFE7FFE7FFE7C04684B26C
:102F90007B6F3D6F1B0423433B667A66FFE7FFE7C9
:102FA000C04600232C042D0C7A6F386F001969413C
:102FB000B0BC7047000000D0F0B594460025140E58
:102FC00001D112020835140F01D112010435940FFA
:102FD00001D192000235D40F01D152000135D40B3A
:102FE0000134254F7C66254C3C660E0C93B2FFE7FE
:102FF000FFE7FFE73C6F6643360C7703BE4673433B
:10300000DF0B5B04C01AB941130C7343DB18C91AF8
:10301000CE086643360CB64493B273431F0F1B01B0
:10302000C01AB941130C73431F0B1B05C01AB941D9
:10303000860D8F023E436643360C092D24DB520A6F
:103040007243801A7703460A6643360C16235B1BCD
:10305000DE40DF40BF1964466643821B704604357C
:1030600006330100D940A840C01900D30131A24263
:1030700006D20023F0BD0000000000D0FFFFFFFFDC
:10308000121B0130F3D3F1E709277F1BFE40644692
:10309000A2B27243801A00D20139220C7243130C7F
:1030A0001204821A99410B0070460435133701004F
:1030B000F940A840801900D30131002B02D1A2426F
:1030C0000AD2F0BD013000D30131121BFAD2013B0C
:1030D000F8D1A24200D2F0BD013000D30131121B61
:1030E000F7E7F0B51C0C00D080E00CB400251C0AFA
:1030F00004D11B02160E3343120208351C0B04D1F7
:103100001B01160F3343120104359C0B04D19B00A5
:10311000960F334392000235DC0B02D192185B41CB
:1031200001351C00971864410134464F7C66464CBB
:103130003C660E0CFFE7FFE7FFE7C0463C6F6643C7
:10314000360C7703BE4697B27743C01B00D20139D5
:10315000C01B00D201399FB27743C91BC91B170C92
:1031600077437E04FF0B801BB941CE086643360CC3
:103170000C2D33DBB644120B1F053A431B0B97B2E1
:103180007743C01B00D201399FB27743C91B170C8C
:1031900077433E043F0C801BB941860D8F023E43AE
:1031A000664329277F1BFE400C3D7746AF40BF1981
:1031B00030BCA2B2ABB272437343801A9941220C65
:1031C0007243130C1204801A994102000B0001375C
:1031D000001BA941F9D2781E0021F0BD0C277F1BEE
:1031E000FE4077467F0BAF40FF19E0E700245D1CEF
:1031F00007D0144F7D663966FFE7FFE7FFE7FFE77B
:103200003C6F95B29EB265436643401BB141150CBD
:103210001E0C6543664336042F0C3E432D04401BB1
:10322000B141994204D202000B0020000021F0BD00
:1032300001D19042F7D3801A994101349942F2D3D7
:10324000F6E70000000000D0FFFFFFFF48404140CC
:10325000484018B41B4B5B68FC46019308BD04DF73
:103260002735001018B4174B1B68FC46019308BDA6
:1032700000DF313500109446134A926F920809D24C
:10328000624618B40F4BDB68FC46019308BD0CDFA7
:10329000E93700100C4AF0B5146E556E576F166F73
:1032A0006246FFF7EEFF084A1466556657671667D1
:1032B000F0BD18B4034B9B68FC46019308BD08DFC2
:1032C0008D360010F4C80020000000D0FFB550403B
:1032D0004240504059404B40594000E0FFB5154F27
:1032E0004C00640D03D0BC4204D10C0314D8002060
:1032F000090D09055C00640D03D0BC4204D11C0318
:103300000AD800221B0D1B0501264B4009D44B4057
:1033100003D58B4200D18242FFBD9942FCD190423D
:10332000FFBD0B43DB1803431343F5D0C9434918D2
:10333000FFBD0000FF07000000B5FFF7CFFF804191
:1033400000BDC04600B5FFF7C9FF01D9002000BD90
:10335000012000BD00B5FFF7B9FF01D9002000BD75
:10336000012000BD00B5FFF7B1FF804100BD012085
:1033700040054A00121804D85A00121801D800203B
:10338000704701207047002070470000002100288E
:1033900005D17047C1174840401AFAD0C90713B584
:1033A000064B1B6898470CBC441CA2401005120B2E
:1033B0000349091B09051943114310BDD0C800205A
:1033C0001F04000010B54C00620D8023D218DB00F2
:1033D000D21A5B057E2A10DD9E3A13DACC17090358
:1033E000490819435242D140640001341532202A61
:1033F00005DAD0400843604310BD002010BD0846E8
:10340000604310BDC80FC018013810BD18B4044B7C
:103410005B6AFC46019308BD24DF99390010000067
:10342000F4C8002070B513231C78012C0CD0012C9B
:1034300013DC022C02DC1F4A1F4B9A641F48FFF763
:1034400071FC1F4B186070BD00231F2BEFD8990033
:103450001848194A88500133F7E71A48FFF76AFC01
:1034600005001948FFF766FC023803789B007F2BA4
:1034700019DD80222900104800F092FB022CD8D1DF
:10348000124B1A88B5231B029A4209D1104B1A8895
:10349000104B9A4204D1104B1A88104B9A42C8D054
:1034A0000020FDF7D3FF0E4B0E4A32210E48FDF7E8
:1034B00033FFC046ED340010F4C800204C33000048
:1034C000D0C8002053440000534600005438000088
:1034D000D8380000494600009C38000059460000DA
:1034E0008070001034710010E070001007B5604665
:1034F000002800D100BE01880A0A0230DF2AFAD172
:10350000C9B2820804D3028840880004104300E056
:103510000068024A5050039007BD0000F4C8002024
:103520000FB403BC0CBCF0B50124E407634000E019
:10353000F0B50C0DCF0F661E3605891B640503D34D
:10354000C943404200D30131640D03D0661CF60A22
:1035500007D0E41B00207F00791C89078912803C7A
:1035600024031D0DDF0F6E1E36059B1B6D0503D357
:10357000DB43524200D301336D0D03D06E1CF60ABB
:1035800007D0ED1B00227F007B1C9B079B12803D18
:103590002D032F1B661B58D4A446202E46DA203755
:1035A0001400BC401D00BD40F24033412A43801846
:1035B0005941CB0F05D0C943C0430022644250415A
:1035C000514162464D0D28D10D0D07D100281FD065
:1035D000241940414941013A0D0DF9D0640006D348
:1035E000013000D30131002C01D140084000013AE4
:1035F0000BD4941CE40A04D112051144DB071944CE
:10360000F0BDD907204B194300E0D9070020F0BDD9
:103610000029DDD1002CDBD1F0BD0132C607400806
:10362000CD0728434908002EE1D0D9E73C2E29DAFE
:10363000203E40371400BC4000D00124F240144327
:103640001A00BB401C43D317ACE7AC46202F08DA66
:1036500020360400B4400D00B540F84039412843FD
:10366000A5E73C2F0CDA203F40360400B44000D0E0
:103670000124F84004430800B1400C43C117EAE7B5
:1036800010001900002494E70000F07FF0B50C0D45
:10369000661E3605891BE60A6405640D02D0651CAA
:1036A000ED0A04D0002001210905803C2403A44632
:1036B0001C0D671E3F05DB1BE70A6405640D02D085
:1036C000651CED0A04D0002201231B05803C240365
:1036D0007740644497B484B296B27443070C7E4337
:1036E000150C6F4380B26843361802D301200004E2
:1036F0003F183004350C00197D41844688B29AB2D7
:1037000050430C0C62431F0C7C438EB27E439219D3
:1037100002D301263604A4191604170C3618674183
:1037200001BC81B29AB25143040C62431B0C5C434E
:1037300080B25843121802D3012000042418100448
:10374000130C401863412D185E410020474106BC10
:1037500088B293B258430C0C6343120C544389B2A1
:1037600051435B1802D301210904641819041A0C8F
:10377000091862416D1856410020474118BCF902F2
:10378000720D1143F0026A0D1043ED020A0D03D1D0
:103790006D1940414941013B124E9B1B7600B342DB
:1037A0000ED26D0007D301300026714166463543C5
:1037B00001D1400840001B05C918E4072144F0BDB1
:1037C0000BDA013306D1013004D101314F0D01D0A4
:1037D0004908F2E7E1070020F0BD0136310500207D
:1037E000EBE70000FF030000F0B51C0D671E3F056E
:1037F000DB1BE70A6405640D02D0661CF60A04D0E0
:10380000002201231B05803C2403D0252D06002621
:10381000F6432E661E096E66CE0FF619B4464900B1
:103820004F0D02D07E1CF60A03D000200021403F3D
:103830003F033E1BB600B444013F7F05C91B490846
:103840002E6F013676089C02950D25437543ED13C6
:103850007543AD1301356D10F603761B0CB4CC0225
:10386000450D2C43A2B2B3B25A43270C7B43350C0F
:103870006F43A4B26C431B1902D3012424043F19E3
:103880001C041D0CA4187D4124196D41009A91B2AD
:10389000ACB26143170C7C432B0C5F4392B25A438A
:1038A000A41802D301221204BF182204230C5218B8
:1038B0007B41019C6C431B19520ED9010A43440100
:1038C000A01A81B2B2B2514303145A43360C734367
:1038D00087B27743D617D21900277E4136049B1949
:1038E0001704160C7F185E417316ED18F3010026BD
:1038F00080337541A90F06D16400690AE8055B0AA7
:10390000184309D22FE00422944480337541A90A58
:10391000A8059B0A184326D3404149412404009A34
:10392000019B0D005543641B4343E41A95B286B2D4
:103930007543170C7E43030C5F4392B25A43B6188B
:1039400002D301221204BF183204330C52197B41F6
:1039500052429C41002C02D40022013051414008C7
:10396000CA071043490802B06246D7079210084BB5
:10397000D218084B9A4203D212058918C919F0BD12
:103980000020002A01DC3900F0BD01331905F5E7FC
:10399000FD030000FE070000002200B5203200F009
:1039A00004F8080000BD000000220B150AD410B571
:1039B000944600F031F81414013400DA0021CB17DA
:1039C000144C20470020002170476244343A0CD444
:1039D0000C2A07DA04009140904052422032D44031
:1039E000214310BDD843D94310BD203207D40C4623
:1039F0009440524220321141D040204310BD080073
:103A0000C917203203D452422032104110BD180091
:103A1000190010BDCB3900100A0DCC0F531E1B0529
:103A2000C91A520503D3C943404200D30131520D94
:103A300003D0531CDB0A07D0121B00206400611C5A
:103A400089078912803A1203014BD21A704700008D
:103A5000FF03000070B513231D782A48FFF76AF9A9
:103A60000400012D11D0012D09DDA31E1B789B0040
:103A70007F2B40DD80222100234800F091F823486D
:103A8000FFF750F9224B186070BD542201001E4808
:103A900000F086F81F4B1A881F4B9A421CD1A723AF
:103AA0009B011A881D4B9A4216D11D4B1A881D4B3B
:103AB0009A4211D11C4B1A8894239B019A420BD134
:103AC0001A4B1A881A4B9A4206D11A4B1A681A4B8B
:103AD0009A4201D1152307E01848FDF7B7FC990079
:103AE0001748094A885001331F2BF8D9144A064B4E
:103AF0001A62DA61B7E7134B134A42211348FDF704
:103B00000BFCC04653460000F4C900204C330000B3
:103B1000D0C80020EE290000C40F0000C20D000034
:103B2000962B0000C0B50000182B0000CC2A000026
:103B300010B50000FC2C000051ED8764C469001032
:103B4000513B001048710010D07100107C710010C2
:103B500007B56046002800D100BE01880A0A02307D
:103B6000DF2AFAD1C9B2820804D30288408800044F
:103B7000104300E00068024A5050039007BD000067
:103B8000F4C9002001480421014B184740020020DD
:103B9000452D0010014B1B68184700004002002013
:103BA000014B5B68184700004002002010B503007D
:103BB000080011001B68984710BD0000F8B5070009
:103BC0000D001600437C002B02D0002400200CE0E6
:103BD00003681100280098472DE03B7C10E002218B
:103BE00015483B689847601C0134B44214DA002C35
:103BF000F3DD2B19013B1B780D3B5A425341DBB2DD
:103C00002A5D0A2AF0D1002BEED1A042E7DA211A70
:103C100028183B689847E2E7B04203DA311A2818BF
:103C20003B689847002E06DDAD19013D2B780D3B12
:103C30005A4253413B74F8BD4472001070B5050000
:103C40000368002B16D00C4B1C6805E0290004C942
:103C50002000FFF7B3FFE468002C09D02368002B95
:103C6000F9D0064B1B68002BF0D0A342F3D1EDE74F
:103C700000232B6070BDC046B8C80020BCC800201F
:103C800070B505000C000B68802B05D021684B1C1B
:103C900023606418257170BD0800FFF7CFFFF5E7BA
:103CA00010B582B0D0231B0600241C5701A9074879
:103CB00002F0C2FB002806D1019B9C4203D00348BE
:103CC00002F0C2FB012002B010BDC0466C02002011
:103CD00010B5024802F098FB10BDC0466C020020EF
:103CE000F0B5CE46474680B583B006000D0090463D
:103CF0001C00FFF7D5FF81466B1C05D0002C08D0B7
:103D0000194F1A4B1C6807E0300002F04DFB05000C
:103D1000F4E7174FF5E7E468002C17D02368002B71
:103D2000F9D0144B1B68002B01D0A342F3D12A0019
:103D300031002000B8474346002BECD06B46D91D1C
:103D40000A230B7001222000B847E4E74B46002B02
:103D500007D1681E8541E8B203B00CBC9046994675
:103D6000F0BDFFF7B5FFF4E7AD3B0010B8C8002089
:103D7000BD3B0010BCC800200C4B1A681300002B80
:103D80000BD0834202D01A00DB68F8E7002903D188
:103D9000DB68D3600023C36070470029FCD0002A91
:103DA00001D0D060F8E7014B1860F5E7B8C80020F3
:103DB00010B5064B1C6800E0E468002C04D0636872
:103DC000002BF9D09847F7E710BDC046B8C80020CF
:103DD00070B5050002F0E8FA04000023012201009A
:103DE0002800FFF77DFFFFF7E3FF200070BD000014
:103DF00070B5A2B004000E00FFF752FF0500842248
:103E0000002101A8FFF7C6FE3300220001A90848DF
:103E1000FEF770FF040001A8FFF710FFFFF7C8FFCF
:103E2000002D02D1200022B070BDFFF751FFF9E74D
:103E3000813C00100FB400B583B004A901C9019101
:103E4000FFF7D6FF03B008BC04B0184710B500F068
:103E500083F810BDF0B583B000251AE06B46073338
:103E60000D241C70002403E01F7817600134013317
:103E7000002C1CD19769BF06FCD4F5E71E781660AC
:103E800001340133002C03D19669B606FCD4F5E762
:103E900001358D4210DA094B1A68465D084BD3187C
:103EA0005C4263415B00074C1B5FB342D6D06B465C
:103EB00007331E700024E5E703B0F0BDE8C800201A
:103EC0000080FCBFF0C80020F0B583B007000020E0
:103ED0000DE09369DB06FCD413682B7001340135C7
:103EE000002CF6D06B4607331B78037030008842F5
:103EF0000CDA094B1A68936910252C001C401D42EE
:103F000004D1461C38186B46DD1DE9E7002801D0B6
:103F100003B0F0BD0338FBE7E8C8002070B515001A
:103F20001C000B4B1860FCF707FB002D06DA002C79
:103F300009DA01210748FFF71FFF70BD02212800A1
:103F4000FCF73CFAF3E702212000FCF737FAF0E730
:103F5000E8C800205002002010B5064B1B78064B25
:103F60001B78E1210123002249020448FFF7D6FF14
:103F700010BDC046E4720010E8720010004003401B
:103F8000084B42699A4201D000207047826A14337C
:103F90009A4203D0002A03D00020F6E70020F4E77D
:103FA0000120F2E7A4030020074B9B6A1B68002B4B
:103FB00004D1054B01225242DA627047024B9A6AE1
:103FC000D2681268DA62F8E7A403002010B5040092
:103FD000006B01F0C9FC200001F0C6FC10BDF8B573
:103FE000D6464F4680B581469A46089D0A9F1C4B8F
:103FF0009C46624492003B6B9C46624407239A4372
:10400000160000290ED000220F2A08D88B5CBC189D
:10401000343423708B5C002B01D00132F4E743234E
:104020000022FA54032D00D90325FD62381D01F04A
:104030000CFD3800183001F008FD3F6104235D1BC2
:10404000BD617F6252464946300001F033FB386063
:10405000099B002B00D01F600CBC91469A46F8BD0E
:10406000FFFFFF3F70B5002408E01148A3001B19B3
:104070009A003030801801F0DDFC0134032CF4D9B3
:104080000C4C200001F0D6FC26001436300001F064
:10409000D1FC074D2800143001F0CCFC2000283062
:1040A00001F0C8FC280001F0C5FCAC62E66370BDFD
:1040B000A40300202404002070B5040001F018FBC4
:1040C000274B1A6C01321A645B6C002B0CD0244B0A
:1040D0009B6C002B0DD1224B5B6CDB6AE26A934236
:1040E00007D81F4B5C6404E01D4B5C641B6C012B08
:1040F0002FD01B4AD36C0133D364E36A126D934211
:1041000001D9174A136517499A00D21892008A18E4
:10411000536BA3609868E060221D42609A60E06A79
:104120000A00303283001D18AD00521962614A192D
:10413000126B01324B191A6301F0E6FA084B9B6CC3
:10414000002B05D0064B5B6CDA6AE36A9A4203D314
:1041500070BDFFF787FFCCE701F0BEFAF8E7C04675
:1041600024040020A403002070B50C4B5B6D002BD1
:1041700013D001F0BDFA094C636BDD68281D01F016
:1041800089FC236C013B2364636D013B636501F093
:10419000BBFA2800FFF71AFFE7E770BD24040020F0
:1041A00010B5FFF7E1FF034B1B6B012BF9D901F0B1
:1041B00093FAF6E7A403002070B504000D001C4B31
:1041C0009E6D586C043001F065FC631C0CD03419F2
:1041D000174B5B6C5C60A6421CD9154BD86B596CB5
:1041E000043101F040FC70BD002DF0D0114A51683F
:1041F0000F4B586C8160586C8C68C460586C0430EC
:104200006060586C043088605B6C5A6113680133DD
:104210001360E8E7074DA86A054B596C043101F0BB
:1042200022FCEB6AA342DED9024BDC62DBE7C0462C
:1042300024040020A4030020F0B587B00490059169
:1042400016001F00900001F029FB041E21D06820F9
:1042500001F024FB051E18D068220021FFF79AFC0C
:104260002C63002D19D00023039302950D9B01931D
:104270000C9B00933B00320005990498FFF7AFFEBA
:104280002800FFF719FF012005E0200001F06CFB7A
:10429000E7E70120404207B0F0BD01204042FAE7C5
:1042A00070B5040001F024FA002C29D0251D280047
:1042B00001F0F0FBA36A002B03D02000183001F0BE
:1042C000E9FB174BDA6C0132DA645B6CA3421AD05B
:1042D000134A136C013B1364FFF766FE01F014FAF6
:1042E0000F4B5B6CA34202D02000FFF76FFE0C4B1C
:1042F0009B6C002B03D00A4B5B6CA3420DD070BDAE
:10430000074B5C6CD2E7064E30002830290001F0E4
:104310009FFB736D01337365E0E701F0DDF9EEE7B4
:104320002404002010B5040001F0E2F9002C04D0B0
:10433000E46A01F0E9F9200010BD014B5C6CF7E77D
:104340002404002010B5040001F0E8F9002C04D08A
:10435000E46A01F0E7F9200010BD014B5C6CF7E75F
:104360002404002070B504000D00032900D90325A2
:1043700001F0BEF9002C0ED0E36A9D4226D00DD983
:104380002A4A526CA24224D0284A526CD26AAA42CB
:1043900021D9002607E0254B5C6CEDE7234A526CDF
:1043A000A2421AD00026E562A269002A02DB04219B
:1043B0004D1BA5611E4A9900C918890013003033AE
:1043C0005B1862699A420AD0002E2CD101F09CF948
:1043D00070BD0026E7E70126E5E70126E3E7251D96
:1043E000280001F057FBE36A104A126D934201D98D
:1043F0000E4A13650E499A00D21892008A18536B20
:10440000A3609A68E26055609D60E06A0A003032FD
:1044100083001D18AD00521962614A19126B0132F6
:104420004B191A63D0E701F057F9CFE724040020B5
:10443000A403002070B504001D4B5B6C83420AD0BE
:10444000002808D001F054F92000FFF799FD00285A
:1044500002D101F059F970BD251D280001F01AFBA9
:10446000E36A134A126D934201D9114A1365114947
:104470009A00D21892008A18536BA3609A68E2607F
:1044800055609D60E06A0A00303283001D18AD005F
:10449000521962614A19126B01324B191A63E26AAE
:1044A000034B5B6CDB6A9A42D3D301F015F9D0E77A
:1044B00024040020A4030020F8B5040001F02EF924
:1044C00006002000FFF75CFD051E30D01F4BDB6DA2
:1044D000002B33D11D4B5B6CDB6AE26A9A422BD313
:1044E0001A4B01221A660125271D380001F0D2FA65
:1044F000E36A164A126D934201D9144A13651449AE
:104500009A00D21892008A18536BA3609A68E260EE
:1045100057609F60E06A0A00303283001F18BF00B6
:10452000D2196261CA19126B0132CB191A633000B9
:1045300001F0F8F82800F8BD0025D5E72100183172
:104540000348143001F084FA0025F0E72404002029
:10455000A403002000B583B08022114B6433019383
:104560000023009352000F490F48FFF765FE012812
:1045700005D0012806D00D4B1B6803B000BD00F02C
:10458000BAFFF6E772B60A4B01225242DA62044BD6
:1045900002329A6400229A6501F012F9EBE7C046F4
:1045A0002404002088720010A14100106402002041
:1045B000A403002010B572B6024B00229A6401F0E9
:1045C0008AF810BD24040020024AD36D0133D3655C
:1045D0007047C04624040020014B986D7047C046C8
:1045E00024040020014B986D7047C046240400202D
:1045F000014B186C7047C04624040020002801D0ED
:1046000034307047014B586CFAE7C0462404002050
:10461000F8B5444BDB6D002B7ED1424B9E6D0136CD
:104620009E65002E0AD0404BDB6AB34211D90020B0
:104630003C4B1B6E002B74D0012072E03A4A916A09
:10464000D86B9062D9639A6E01329A66FFF7ACFC20
:10465000E9E7002037E0344B01225242DA62E7E713
:10466000314BDA62E4E7D968516042E0196A51607F
:1046700000219962116801391160D96A294A126DC5
:10468000914201D9274A1165274A8C006418A1007C
:104690005118496B99608C68DC6065608D60DC6ADC
:1046A00015003035A1000F19BF00ED195D61D51956
:1046B0002D6B0135D2191563DA6A1A4B5B6CDB6A14
:1046C0009A4200D30120184B9B6A1B68002BC2D072
:1046D000154B9B6ADB68DB685A689642C0D35A69FF
:1046E0009C68D968A1609C684C601D1D5168A942F6
:1046F000B9D0002159611168013911609A6A002A04
:10470000BBD0DC69196AA160DC694C601900183102
:1047100054688C42ACD1A9E7024AD36E0133D36608
:104720000020F8BD24040020A403002070B500F090
:10473000DFFF434BDA6D013ADA65DB6D002B7AD18E
:104740003F4B1B6C002B07D1002475E0196A5160A8
:1047500015E0D968516021E000233A4A5269002AE5
:104760004AD0384B1B6ADB689A6AD869196A81603B
:10477000D86948601900183150688842E6D0002195
:1047800099621168013911605A699868D968816025
:10479000986848601C1D5168A142DAD00021596117
:1047A000116801391160DA6A2549096D8A4201D917
:1047B00023490A65234891008918890041184A6BEA
:1047C0009A609168D9604C609460DC6A0100303175
:1047D000A2001519AD00491959614119096B013140
:1047E00042191163164A526CD26AD96A9142B4D303
:1047F000134A01211166B0E7002B01D0FFF7D4FB6B
:104800000F4BDC6E002C0AD10D4B1C6E002C13D00C
:1048100000F062FF01240FE0013C002C07D0FFF7FD
:10482000F7FE0028F8D0064B01221A66F4E7044B85
:104830000022DA66E8E7002400F066FF200070BD81
:1048400024040020A403002070B505000C00FFF72D
:10485000BBFE144B986D2B681C1983420BD9A342E5
:1048600002D82C60002410E0A04202D32C60002467
:104870000BE02C6004E0A34201D8A0420BD22C60D4
:10488000201A0021FFF798FC0124FFF74FFF0028B2
:1048900004D0200070BD2C600024F6E700F01CFF5F
:1048A000F7E7C0462404002010B5041E09D0FFF726
:1048B0008BFE00212000FFF77FFCFFF737FF002869
:1048C00001D100F009FF10BD10B50400FFF77CFE18
:1048D000034BD86E0019D866FFF728FF10BDC046FD
:1048E0002404002010B51B4BDB6D002B03D0194BAB
:1048F00001221A6610BD174B00221A661B6D00E0DC
:10490000013B9A00D2189100134A5218126B002AE8
:10491000F6D0114A9900CC18A0001018446B6468B6
:1049200044633032C91888000100083012189442DC
:104930000AD09A00D2189100074A5218526BD168D7
:10494000044A51641365D5E76068034A52185063FE
:10495000EFE7C04624040020A403002070B5040043
:1049600000F0C6FE002C10D0251D280001F092F8A2
:10497000A36A002B03D02000183001F08BF8290027
:104980001D4801F065F8002303E01C4B5C6CEBE76D
:104990000133022B09DCE21864321278012AF7D1C4
:1049A000E218643200211170F2E700F0ADFE134B03
:1049B0009B6C002B04D1114B5B6CA34207D070BDE4
:1049C00000F096FEFFF7F0FA00F09EFEF3E70B4BC7
:1049D0009B6C002B09D1084B1A68084B1B6C9A4240
:1049E00006D1064B00225A64E9E700F075FEE6E7BF
:1049F000FFF778FFE3E7C046A4030020240400206B
:104A000010B50C00044B596C183101F02CF8012141
:104A10002000FFF7D1FB10BD2404002070B5030077
:104A200010000D4C656C802212060A43AA615A6878
:104A3000616CCA61616C95680D62616C1831696066
:104A4000616C18319160626C93621A6801321A606D
:104A50000121FFF7B1FB70BD2404002070B50300F5
:104A6000080011005A680C4C656CEA61656C966828
:104A70002E62656C18357560656C18359560626CD2
:104A800093621A6801321A60002901D00120404265
:104A9000FFF792FB70BDC0462404002030B5C36808
:104AA000DB689A6AD869196A8160D8694860180019
:104AB00018305168814241D0002199621168013952
:104AC0001160294AD26D002A3ED15A699868D96886
:104AD0008160986848601C1D5168A14231D0002156
:104AE0005961116801391160DA6A1F49096D8A42FA
:104AF00001D91D490A651D4891008918890041188E
:104B00004A6B9A609168D9604C609460DC6A0100DD
:104B10003031A2001519AD00491959614119096BCD
:104B2000013142191163DA6A0F4B5B6CDB6A9A42FE
:104B300018D90D4B01221A66012030BD196A516047
:104B4000BAE7D9685160CAE7084A9169D9618C68A7
:104B50001C626060886011001431996251690131F2
:104B60005161E0E70020E8E724040020A4030020CE
:104B700030B580231B060B430360C368026941689C
:104B800084688C60816844684C60516881423CD084
:104B9000002101611168013911605A699868D9686A
:104BA0008160986848601C1D5168A14230D0002186
:104BB0005961116801391160DA6A1749096D8A4231
:104BC00001D915490A6515489100891889004118CD
:104BD0004A6B9A609168D9604C609460DC6A01000D
:104BE0003031A2001519AD00491959614119096BFD
:104BF000013142191163DA6A074B5B6CDB6A9A4236
:104C000002D9054B01221A6630BD81685160BFE7A9
:104C1000D9685160CBE7C04624040020A4030020DB
:104C200010B5040000F064FD034B9A6E22609B6D8A
:104C3000636000F069FD10BD24040020024B9A6EF1
:104C400002609B6D4360704724040020F8B50400A7
:104C50000D0000F04DFD124B996D6368C81A2A686B
:104C6000561C18D00E4EB66E2768B74205D08B4240
:104C700003D800232B6001240EE0824203D80023D6
:104C80002B60012408E05B1A9B182B602000FFF7C3
:104C9000D5FF002400E0002400F036FD2000F8BD20
:104CA00024040020014B01221A66704724040020CE
:104CB000042905DC002804D01031890041184A601D
:104CC0007047014B586CF7E724040020042909DCE5
:104CD000002804D010318900411848687047024B01
:104CE000586CF7E70020F9E724040020014B586CCA
:104CF0007047C04624040020064B9B6C002B07D055
:104D0000044BDB6D002B01D0002002E0022000E00C
:104D10000120704724040020044A536C9869536CA6
:104D2000D96A526C04235B1A9361704724040020F3
:104D300070B504000D00160000F0DAFC1E4B5A6C32
:104D4000230016339B009B58002B07D11A4B5B6C3A
:104D50001B19643301221A70002E1ED100F0D4FCFE
:104D600000F0C6FC144B5A6C230016339B009E586F
:104D7000002E08D0002D17D00F4B5A6C230016338D
:104D80009B00002199500C4B586C0419643400238B
:104D9000237000F0B9FC300070BD01213000FFF736
:104DA0000BFA00F099FCD9E7034B596C721E2300F3
:104DB00016339B005A50E6E724040020F8B504009F
:104DC0000E0015001F0000F093FC234B5A6C1219C3
:104DD00064321378022B0FD01F49486C230016331E
:104DE0009B001A58B2431A504B6C1B1964330122B2
:104DF0001A70069B002B1ED100F086FC00F078FC98
:104E0000002F06D0144B5A6C230016339B009B587E
:104E10003B60114B5B6C1B1964331B78022B11D068
:104E200000250D4B586C041964340023237000F0E6
:104E30006BFC2800F8BD01211800FFF7BDF900F058
:104E40004BFCD9E7044B596C230016339B005A588E
:104E5000AA435A500125E4E724040020F8B50400D1
:104E60000D0016001F0000F043FC069B002B05D030
:104E70002B0016339B001B59069A1360611964318D
:104E80000878C0B202230B70032F24D00CD8012F56
:104E90001AD0022F06D11635AD002B5901332B51F4
:104EA00001250BE0012509E0042F06D1022817D0C7
:104EB0001635AD002E51012500E00125012811D045
:104EC00000F022FC2800F8BD1635AD002A59164323
:104ED0002E510125F2E71635AD002E510125EDE7E3
:104EE0000025EBE76369A268E1689160E268A16868
:104EF0005160211D5A688A422CD0002262611A68D2
:104F0000013A1A60E36A154A126D934201D9134AB5
:104F1000136513489A00D21892008218536BA3604D
:104F20009A68E26051609960E36A02003032990049
:104F3000CE18B600921962618219126B0132831980
:104F40001A63E26A054B5B6CDB6A9A42B8D900F0DF
:104F5000C3FBB5E7E2685A60CFE7C04624040020EF
:104F6000A4030020F0B583B004000D0001921E00E0
:104F7000089F00F0D3FB002F04D02B0016339B00BA
:104F80001B593B60631964331F78FFB202221A7009
:104F9000032E27D00CD8012E1CD0022E06D1163598
:104FA000AD002B5901332B5101250CE001250AE0FE
:104FB000042E07D1022F1BD01635AD00019B2B51BB
:104FC000012500E00125012F14D000F0ABFB2800E3
:104FD00003B0F0BD1635AD002A59019E16432E517F
:104FE0000125F0E71635AD00019B2B510125EAE7BD
:104FF0000025E8E72A4BDB6D002B41D16369A268ED
:10500000E1689160E268A1685160261D5A68B24269
:1050100033D0002262611A68013A1A60E36A204ABA
:10502000126D934201D91E4A13651E499A00D21887
:1050300092008A18536BA3609A68E26056609E6083
:10504000E66A0A003032B3009F19BF00D2196261CC
:10505000CA19126B0132CB191A63E26A104B5B6CEE
:10506000DB6A9A42B1D9099B002B02D00123099A2D
:1050700013600B4B01221A66A7E7E2685A60C8E783
:10508000084B9A69E26196682662210018317160C6
:1050900091601A001432A2625A6901325A61DCE747
:1050A00024040020A4030020F8B506000C0015001D
:1050B00000F034FB331964331A7802211970163466
:1050C000A400A3590133A351012A02D000F02AFB06
:1050D000F8BD2A4BDB6D002B3FD17369B268F168D4
:1050E0009160F268B1685160341D5A68A24231D0B3
:1050F000002272611A68013A1A60F36A1F4A126D3F
:10510000934201D91D4A13651D499A00D218920095
:105110008A18536BB3609A68F26054609C60F46ABA
:105120000A003032A3001F19BF00D2197261CA19D8
:10513000126B0132CB191A63F26A104B5B6CDB6A9B
:105140009A42C3D9002D01D001232B600B4B0122C1
:105150001A66BBE7F2685A60CAE7094B9A69F261BE
:105160009468346231001831616091601A00143221
:10517000B2625A6901325A61DEE7C0462404002057
:10518000A403002070B504000D0000280BD000F02F
:10519000AFFA631964331B78022B07D0002400F0A8
:1051A000B3FA200070BD044B5C6CF0E76419643402
:1051B000002323700124F2E72404002070B50500C9
:1051C0000C00160000280CD000F092FA21001631D5
:1051D00089004C594B59B3434B5100F095FA2000CC
:1051E00070BD014B5D6CEFE724040020074B1A688B
:1051F0001368002B06D101330360002B04D1D36860
:10520000186870470023F7E70020FAE794040020AD
:1052100010B54160006191420CD8D21A83699A425C
:1052200001D3012010BD011D094B586800F01BFC83
:105230000020F7E79A4201D2994206D2011D044BA1
:10524000186800F010FC0020ECE70120EAE7C046F7
:105250009404002070B504000D001600A3695919CC
:105260002B0032002000FFF7D3FF002806D0A369EF
:105270009C4665442000236A9847EFE770BD70B5EF
:1052800005000E000C4B1B68DB68DC68201D00F07D
:1052900001FC2423E35C5A0707D401229343233201
:1052A000A354236A2000984770BD320029002000D3
:1052B000FFF7D0FFF5E7C0469404002010B5084B77
:1052C0001B681A68002A06D0DB6818680121494269
:1052D000FFF7D5FFF3E7024A51681160536010BD34
:1052E0009404002070B50500FFF776F90400074B21
:1052F0009B68834205D800232B60044B9C602000F0
:1053000070BDFFF7DBFF01232B60F6E7940400205C
:1053100070B582B004000D00FFF756F901A8FFF741
:10532000E1FF0600019B002B23D1002D01D1A042FB
:1053300013D2002D05D0104A52681268002A13D1EA
:105340000125A11B0C4BD8682A0001F005F8FFF7D6
:10535000EDF900280AD002B070BDFFF7E7F931007F
:105360002000FFF78CFFF6E71D00EAE700F0B4F934
:10537000F1E7FFF7DBF9EEE79404002030B585B0E4
:10538000334BD868002201A900F0C1FD00285CD091
:10539000019B002BF4DB039C6369002B02D0201DD2
:1053A00000F078FB6846FFF79DFF0500019B092B85
:1053B000E6D89B00274AD3589F462422A35C0121AC
:1053C0000B43A354029BA269944663441900029BB9
:1053D00002002000FFF71CFF0028D1D02423E35C4B
:1053E0005A0707D4012293432332A354236A20008F
:1053F0009847C5E7029BA2699446634419002A00B6
:105400002000FFF727FFF1E72422A35C01218B4353
:10541000A354B5E72422A35C01210B43A3540299B2
:10542000A1610918030002002000FFF7F1FEA7E7C1
:105430002423E35C9A0704D5012293432332A35427
:105440009EE7200000F090FA9AE705B030BDC04614
:10545000940400209072001000B583B001A8FFF7FB
:10546000C5FE0199FFF754FFFFF788FFF6E770B517
:1054700000F03EF90F4BDB68002B02D000F044F93E
:1054800070BD0C4C26001036300000F0D3FA250019
:105490002435280000F0CEFA2660656000220C2139
:1054A0000A2000F00DFCE0600028E7D0024900F07F
:1054B00003FFE3E794040020B8720010F0B5C6467D
:1054C00000B580460F0015001E00079CFFF7CFFFB8
:1054D00043462360A761E661069B2362201D00F01E
:1054E000B4FA002D04D02422A35C04210B43A3545E
:1054F00004BC9046F0BD00B583B0FFF7B8FF0A4B7F
:10550000DB68002B0DD08022074B38330193032337
:1055100000930023520005490548FEF78DFE03B0B5
:1055200000BD0020FBE7C04694040020C0720010BC
:1055300059540010F0B585B003900D0016001F00FF
:10554000282000F0ABF9041E0BD024230022C25403
:1055500001900A9B00933B00320029000398FFF75B
:10556000ADFF200005B0F0BD30B585B004001D00D2
:10557000124BD86800281FD001910292039405298C
:1055800013DCFFF7B9FB022807D00C4BD8680023C7
:10559000002201A900F0D3FB0CE0084BD8680023DF
:1055A000089A01A900F0CBFB04E000232A0001A91E
:1055B00000F03EFC05B030BD0020FBE79404002065
:1055C000014B986B7047C046940400208069704777
:1055D00070B504000D0000F08BF8002D07D02422D8
:1055E000A35C04210B43A35400F08EF870BD242269
:1055F000A35C04218B43A354F6E710B5040000F02C
:1056000077F82423E35C5B0704D4002400F07CF8E3
:10561000200010BD0124F9E740687047006870471A
:1056200010B5040000F064F82423E35CDB0704D425
:10563000002400F069F8200010BD0124F9E710B53E
:10564000040000F055F8E46900F05EF8200010BD99
:1056500070B504000D0000F04BF8E56100F054F85F
:1056600070BDC04600000000000000000000000007
:1056700082B00023019372B6019B002BFCD002B0D4
:1056800070470B4A13681868203080F3098802209D
:1056900080F31488BFF36F8F3FBCAE4608BC04BCD8
:1056A00062B61847C046C046C046C046C046C0465F
:1056B0006804002010B5031F802464041C60043BB0
:1056C0001960043B02491960143B1A60403810BD50
:1056D0007156001070477047044B802252051A60C3
:1056E000BFF34F8FBFF36F8F7047C04604ED00E0EC
:1056F00072B6044A136801331360BFF34F8FBFF3D0
:105700006F8F704768020020034A1368013B1360E3
:10571000002B00D162B6704768020020EFF31080C2
:1057200072B6704780F310887047EFF30980104B12
:105730001A6820381060F0C044464D4656465F4611
:10574000F0C008B572B6FFF7CDF862B60CBC1168B0
:1057500008681030F0C8A046A946B246BB4680F3A0
:1057600009882038F0C81847C046C046C046C04621
:105770006804002010B5FFF7D1FF0400FEF748FFD2
:10578000002803D0034B802252051A602000FFF747
:10579000C9FF10BD04ED00E0054B00221A60054969
:1057A0000A60054A0549116007221A607047C04621
:1057B00010E000E018E000E014E000E047E801003D
:1057C00010B50C4B1968FF2212040A431A601968BD
:1057D000FF2212060A431A60FFF7DEFF064B002283
:1057E0001A60FFF74EFFFFF77DF8FFF741FF00203B
:1057F00010BDC04620ED00E06802002010B5104A40
:1058000053071AD0D11D072399430E4B5B1A9B18DF
:105810000A000D490A6000204860D318083B07249D
:10582000A3438B6058601860981A50601360C8607A
:10583000086180231B064B6110BD024BE9E7C0469F
:10584000F004002050C30000D004002010B5124B1B
:105850001A001B688342FBD351685418844208D055
:1058600041684418A34209D00360904200D0106000
:1058700010BD4068091851601000F1E7064CA4689B
:10588000A34206D05B68C918416013681B680360B7
:10589000EBE70460E9E7C046D004002070B50400DF
:1058A000FEF792FE2F4B9B68002B1BD02D4B5B69A4
:1058B000234248D1631E0A334AD8220008326307C4
:1058C00007D00723110099430B000833934241D9B5
:1058D0001A00002A40D0234B1B6993423ED3214932
:1058E0000C6804E0FFF78AFFE0E721001C00636812
:1058F000934202D22368002BF7D11A4B9B68A34234
:105900002ED00D68083523680B6063689B1A102B36
:1059100013D8626813490B699B1A0B61C9688B42E3
:1059200001D21049CB600F4B59690A4362600022D3
:1059300022609A6901329A6106E0A01843606260B1
:10594000FFF784FFE5E70025FEF7F0FE280070BDB5
:105950000025F9E70025F7E70025F5E70025F3E73F
:105960000025F1E7D004002070B5002809D005001B
:10597000083D6B680D4A52691A4202D02968002915
:1059800000D070BD93436B60FEF71EFE6B68074C42
:1059900022699446634423612800FFF757FFE369B7
:1059A0000133E361FEF7C2FEEBE7C046D0040020FE
:1059B000014B18697047C046D0040020014BD868DD
:1059C0007047C046D00400207047F8B50700FEF7C6
:1059D000FBFD174B1B68002B12D001256D420026E2
:1059E000002404E01B68124A92689A420CD00134E9
:1059F0005A68B24200D91600AA42F3D21500F1E764
:105A000001256D4200260024FEF790FE7E60BD60F9
:105A1000FC60FFF76DFE064B1A693A609A697A617D
:105A2000DA69BA61DB683B61FFF76EFEF8BDC0461C
:105A3000D0040020030008334360012252428260F8
:105A4000C360036100230360704700230361704754
:105A500043684B609A688A60516099600861036886
:105A600001330360704730B50C68631C10D003002D
:105A700008331A005B681D68A542FAD953684B6069
:105A800099608A605160086103680133036030BD2A
:105A90000269F3E70369416882688A60416851607E
:105AA0005A68824206D0002202611A68013A1A60DE
:105AB0001868704782685A60F5E7000010B5040066
:105AC000FFF716FEA26BE36B9A4204D00024FFF7A7
:105AD0001BFE200010BD0124F9E710B50400FFF7FC
